HRIPARTI             2023-12-0600:00:00037000212023-12-0410.35.10RAV  Ripristino KM  Courmayeur
D0000000010099700427000SA1000000029008400000084000000000001000
D0000000020099700427000SA1000000099008400000084000000000001000
D0000000030099700427000SA2000000029011200000112000000000001000
D0000000040099700427000SA2000000099011200000112000000000001000
D0000000050099700427000SA3000000029014900000149000000000001000
D0000000060099700427000SA3000000099014900000149000000000001000
D0000000070099700427000SA4000000029023600000236000000000001000
D0000000080099700427000SA4000000099023600000236000000000001000
D0000000090099700427000SA5000000029027500000275000000000001000
D0000000100099700427000SA5000000099027500000275000000000001000
D0000000110099700428000SA1000000029003500000035000000000001000
D0000000120099700428000SA1000000099003500000035000000000001000
D0000000130099700428000SA2000000029004600000046000000000001000
D0000000140099700428000SA2000000099004600000046000000000001000
D0000000150099700428000SA3000000029006200000062000000000001000
D0000000160099700428000SA3000000099006200000062000000000001000
D0000000170099700428000SA4000000029009800000098000000000001000
D0000000180099700428000SA4000000099009800000098000000000001000
D0000000190099700428000SA5000000029011400000114000000000001000
D0000000200099700428000SA5000000099011400000114000000000001000
D0000000210099800427000SA1000000029008400000084000000000001000
D0000000220099800427000SA1000000099008400000084000000000001000
D0000000230099800427000SA2000000029011200000112000000000001000
D0000000240099800427000SA2000000099011200000112000000000001000
D0000000250099800427000SA3000000029014900000149000000000001000
D0000000260099800427000SA3000000099014900000149000000000001000
D0000000270099800427000SA4000000029023600000236000000000001000
D0000000280099800427000SA4000000099023600000236000000000001000
D0000000290099800427000SA5000000029027500000275000000000001000
D0000000300099800427000SA5000000099027500000275000000000001000
D0000000310099800428000SA1000000029003500000035000000000001000
D0000000320099800428000SA1000000099003500000035000000000001000
D0000000330099800428000SA2000000029004600000046000000000001000
D0000000340099800428000SA2000000099004600000046000000000001000
D0000000350099800428000SA3000000029006200000062000000000001000
D0000000360099800428000SA3000000099006200000062000000000001000
D0000000370099800428000SA4000000029009800000098000000000001000
D0000000380099800428000SA4000000099009800000098000000000001000
D0000000390099800428000SA5000000029011400000114000000000001000
D0000000400099800428000SA5000000099011400000114000000000001000
T000000042