HRIPARTI             2024-01-0100:00:00001001612023-12-0410.23.03RAV  Ripristino KM  Courmayeur
D0000000010000000001000SA1000000006000000000000000000000000000
D0000000020000000001000SA1000000099000000000000000000000000000
D0000000030000000001000SA2000000006000000000000000000000000000
D0000000040000000001000SA2000000099000000000000000000000000000
D0000000050000000001000SA3000000006000000000000000000000000000
D0000000060000000001000SA3000000099000000000000000000000000000
D0000000070000000001000SA4000000006000000000000000000000000000
D0000000080000000001000SA4000000099000000000000000000000000000
D0000000100041000412000SA1000000017002417690024200000000020200
D0000000110041200410000SA1000000017002417690024200000000020200
