HRIPARTI             2023-12-0600:00:00034000312023-12-0410.35.09RAV  Ripristino KM  Courmayeur
D0000000010099700188000SA1000000043002634520026000000000020200
D0000000020099700188000SA1000000099002634520026000000000020200
D0000000030099700188000SA2000000043003283130033000000000020200
D0000000040099700188000SA2000000099003283130033000000000020200
D0000000050099700188000SA3000000043005350460054000000000020200
D0000000060099700188000SA3000000099005350460054000000000020200
D0000000070099700188000SA4000000043006985880070000000000020200
D0000000080099700188000SA4000000099006985880070000000000020200
D0000000090099700188000SA5000000043008077460081000000000020200
D0000000100099700188000SA5000000099008077460081000000000020200
D0000000110099700189000SA1000000043000695320007000000000005300
D0000000120099700189000SA1000000099000695320007000000000005300
D0000000130099700189000SA2000000043000866500009000000000005300
D0000000140099700189000SA2000000099000866500009000000000005300
D0000000150099700189000SA3000000043001412120014000000000005300
D0000000160099700189000SA3000000099001412120014000000000005300
D0000000170099700189000SA4000000043001843750018000000000005300
D0000000180099700189000SA4000000099001843750018000000000005300
D0000000190099700189000SA5000000043002131850021000000000005300
D0000000200099700189000SA5000000099002131850021000000000005300
D0000000210099700446000SA1000000015001198210012000138000000000
D0000000220099700446000SA1000000099001198210012000138000000000
D0000000230099700446000SA2000000015001226930012000138000000000
D0000000240099700446000SA2000000099001226930012000138000000000
D0000000250099700446000SA3000000015001596940016000138000000000
D0000000260099700446000SA3000000099001596940016000138000000000
D0000000270099700446000SA4000000015002442100024000138000000000
D0000000280099700446000SA4000000099002442100024000138000000000
D0000000290099700446000SA5000000015002892390029000138000000000
D0000000300099700446000SA5000000099002892390029000138000000000
D0000000310099700469000SA1000000017005417690054200000000011600
D0000000320099700469000SA1000000029009156810091800000000032400
D0000000330099700469000SA1000000099011574500116000000000044000
D0000000340099700469000SA2000000017002477180024800000000011600
D0000000350099700469000SA2000000029012185260122200000000032400
D0000000360099700469000SA2000000099014662440147000000000044000
D0000000370099700469000SA3000000017003364140033600000000011600
D0000000380099700469000SA3000000029016244110162400000000032400
D0000000390099700469000SA3000000099019608250196000000000044000
D0000000400099700469000SA4000000017005278150052800000000011600
D0000000410099700469000SA4000000029025804000258200000000032400
D0000000420099700469000SA4000000099031082150311000000000044000
D0000000430099700469000SA5000000017006115960061200000000011600
D0000000440099700469000SA5000000029029986030299800000000032400
D0000000450099700469000SA5000000099036101990361000000000044000
D0000000460099700699000SA1000000040002000000020000086000000000
D0000000470099700699000SA1000000099002000000020000086000000000
D0000000480099700699000SA2000000040003000000030000086000000000
D0000000490099700699000SA2000000099003000000030000086000000000
D0000000500099700699000SA3000000040004000000040000086000000000
D0000000510099800469000SA1000000017005417690054200000000011600