HRIPARTI             2023-12-0600:00:00036000212023-12-0410.35.09RAV  Ripristino KM  Courmayeur
D0000000010099700415000SA1000000029008892510089000000000031400
D0000000020099700415000SA1000000099008892510089000000000031400
D0000000030099700415000SA2000000029011833550118000000000031400
D0000000040099700415000SA2000000099011833550118000000000031400
D0000000050099700415000SA3000000029015775260158000000000031400
D0000000060099700415000SA3000000099015775260158000000000031400
D0000000070099700415000SA4000000029025059220251000000000031400
D0000000080099700415000SA4000000099025059220251000000000031400
D0000000090099700415000SA5000000029029120550291000000000031400
D0000000100099700415000SA5000000099029120550291000000000031400
D0000000110099800415000SA1000000029008892510089000000000031400
D0000000120099800415000SA1000000099008892510089000000000031400
D0000000130099800415000SA2000000029011833550118000000000031400
D0000000140099800415000SA2000000099011833550118000000000031400
D0000000150099800415000SA3000000029015775260158000000000031400
D0000000160099800415000SA3000000099015775260158000000000031400
D0000000170099800415000SA4000000029025059220251000000000031400
D0000000180099800415000SA4000000099025059220251000000000031400
D0000000190099800415000SA5000000029029120550291000000000031400
D0000000200099800415000SA5000000099029120550291000000000031400
T000000022