HRIPARTI             2024-01-0500:00:00035000762024-01-0408.45.28Esenzione L'Aquila Ovest- L'Aquila Est  
D0000000010099700035000SA1000000006001560450016000207000000000                                      
D0000000020099700035000SA1000000099001560450016000207000000000                                      
D0000000030099700035000SA2000000006001597270016000207000000000                                      
D0000000040099700035000SA2000000099001597270016000207000000000                                      
D0000000050099700035000SA3000000006002116240021000207000000000                                      
D0000000060099700035000SA3000000099002116240021000207000000000                                      
D0000000070099700035000SA4000000006003200840032000207000000000                                      
D0000000080099700035000SA4000000099003200840032000207000000000                                      
D0000000090099700035000SA5000000006003778830038000207000000000                                      
D0000000100099700035000SA5000000099003778830038000207000000000                                      
D0000000110099700037000SA1000000006000765280007400101000000000                                      
D0000000120099700037000SA1000000007000580000005600082000000000                                      
D0000000130099700037000SA1000000099001345280013000183000000000                                      
D0000000140099700037000SA2000000006000783330008000101000000000                                      
D0000000150099700037000SA2000000007000593460006000082000000000                                      
D0000000160099700037000SA2000000099001376790014000183000000000                                      
D0000000170099700037000SA3000000006001037850010200101000000000                                      
D0000000180099700037000SA3000000007000793010007800082000000000                                      
D0000000190099700037000SA3000000099001830860018000183000000000                                      
D0000000200099700037000SA4000000006001569760015900101000000000                                      
D0000000210099700037000SA4000000007001193000012100082000000000                                      
D0000000220099700037000SA4000000099002762760028000183000000000                                      
D0000000230099700037000SA5000000006001853220018800101000000000                                      
D0000000240099700037000SA5000000007001406600014200082000000000                                      
D0000000250099700037000SA5000000099003259820033000183000000000                                      
D0000000260099700092000SA1000000006000983300010000130000000000                                      
D0000000270099700092000SA1000000099000983300010000130000000000                                      
D0000000280099700092000SA2000000006001006500010000130000000000                                      
D0000000290099700092000SA2000000099001006500010000130000000000                                      
D0000000300099700092000SA3000000006001333530013000130000000000                                      
D0000000310099700092000SA3000000099001333530013000130000000000                                      
D0000000320099700092000SA4000000006002016980020000130000000000                                      
D0000000330099700092000SA4000000099002016980020000130000000000                                      
D0000000340099700092000SA5000000006002381190024000130000000000                                      
D0000000350099700092000SA5000000099002381190024000130000000000                                      
D0000000360099700303000SA1000000028000778140008000000000004500                                      
D0000000370099700303000SA1000000099000778140008000000000004500                                      
D0000000380099700303000SA2000000028000797210008000000000004500                                      
D0000000390099700303000SA2000000099000797210008000000000004500                                      
D0000000400099700303000SA3000000028001092270011000000000004500                                      
D0000000410099700303000SA3000000099001092270011000000000004500                                      
D0000000420099700303000SA4000000028001703810017000000000004500                                      
D0000000430099700303000SA4000000099001703810017000000000004500                                      
D0000000440099700303000SA5000000028001971240020000000000004500                                      
D0000000450099700303000SA5000000099001971240020000000000004500                                      
D0000000460099700308000SA1000000028000935430009000000000005400                                      
D0000000470099700308000SA1000000099000935430009000000000005400                                      
D0000000480099700308000SA2000000028000958360010000000000005400                                      
D0000000490099700308000SA2000000099000958360010000000000005400                                      
D0000000500099700308000SA3000000028001313050013000000000005400                                      
D0000000510099700308000SA3000000099001313050013000000000005400                                      
D0000000520099700308000SA4000000028002048210020000000000005400                                      
D0000000530099700308000SA4000000099002048210020000000000005400                                      
D0000000540099700308000SA5000000028002369700024000000000005400                                      
D0000000550099700308000SA5000000099002369700024000000000005400                                      
D0000000560099700716000SA1000000006001600670016000260000000000                                      
D0000000570099700716000SA1000000099001600670016000260000000000                                      
D0000000580099700716000SA2000000006001634510016000260000000000                                      
D0000000590099700716000SA2000000099001634510016000260000000000                                      
D0000000600099700716000SA3000000006002215210022000260000000000                                      
D0000000610099700716000SA3000000099002215210022000260000000000                                      
D0000000620099700716000SA4000000006003212180032000260000000000                                      
D0000000630099700716000SA4000000099003212180032000260000000000                                      
D0000000640099700716000SA5000000006003743460037000260000000000                                      
D0000000650099700716000SA5000000099003743460037000260000000000                                      
D0000000660099700718000SA1000000006001200000012000210000000000                                      
D0000000670099700718000SA1000000099001200000012000210000000000                                      
D0000000680099700718000SA2000000006001200000012000210000000000                                      
D0000000690099700718000SA2000000099001200000012000210000000000                                      
D0000000700099700718000SA3000000006001700000017000210000000000                                      
D0000000710099700718000SA3000000099001700000017000210000000000                                      
D0000000720099700718000SA4000000006002400000024000210000000000                                      
D0000000730099700718000SA4000000099002400000024000210000000000                                      
D0000000740099700718000SA5000000006002800000028000210000000000                                      
D0000000750099700718000SA5000000099002800000028000210000000000                                      
D0000000760099700802000SA1000000005001736370017000000000016600                                      
D0000000770099700802000SA1000000099001736370017000000000016600                                      
D0000000780099700802000SA2000000005001777460018000000000016600                                      
D0000000790099700802000SA2000000099001777460018000000000016600                                      
D0000000800099700802000SA3000000005002269890023000000000016600                                      
D0000000810099700802000SA3000000099002269890023000000000016600                                      
D0000000820099700802000SA4000000005003511400035000000000016600                                      
D0000000830099700802000SA4000000099003511400035000000000016600                                      
D0000000840099700802000SA5000000005004174260042000000000016600                                      
D0000000850099700802000SA5000000099004174260042000000000016600                                      
D0000000860099700818000SA1000000005001294800013000000000012400                                      
D0000000870099700818000SA1000000099001294800013000000000012400                                      
D0000000880099700818000SA2000000005001325430013000000000012400                                      
D0000000890099700818000SA2000000099001325430013000000000012400                                      
D0000000900099700818000SA3000000005001692640017000000000012400                                      
D0000000910099700818000SA3000000099001692640017000000000012400                                      
D0000000920099700818000SA4000000005002618420026000000000012400                                      
D0000000930099700818000SA4000000099002618420026000000000012400                                      
D0000000940099700818000SA5000000005003112700031000000000012400                                      
D0000000950099700818000SA5000000099003112700031000000000012400                                      
D0000000960099700819000SA1000000005001049780010000000000010000                                      
D0000000970099700819000SA1000000099001049780010000000000010000                                      
D0000000980099700819000SA2000000005001074620011000000000010000                                      
D0000000990099700819000SA2000000099001074620011000000000010000                                      
D0000001000099700819000SA3000000005001372330014000000000010000                                      
D0000001010099700819000SA3000000099001372330014000000000010000                                      
D0000001020099700819000SA4000000005002122930021000000000010000                                      
D0000001030099700819000SA4000000099002122930021000000000010000                                      
D0000001040099700819000SA5000000005002523680025000000000010000                                      
D0000001050099700819000SA5000000099002523680025000000000010000                                      
D0000001060099800035000SA1000000006001560450016000207000000000                                      
D0000001070099800035000SA1000000099001560450016000207000000000                                      
D0000001080099800035000SA2000000006001597270016000207000000000                                      
D0000001090099800035000SA2000000099001597270016000207000000000                                      
D0000001100099800035000SA3000000006002116240021000207000000000                                      
D0000001110099800035000SA3000000099002116240021000207000000000                                      
D0000001120099800035000SA4000000006003200840032000207000000000                                      
D0000001130099800035000SA4000000099003200840032000207000000000                                      
D0000001140099800035000SA5000000006003778830038000207000000000                                      
D0000001150099800035000SA5000000099003778830038000207000000000                                      
D0000001160099800037000SA1000000006000765280007400101000000000                                      
D0000001170099800037000SA1000000007000580000005600082000000000                                      
D0000001180099800037000SA1000000099001345280013000183000000000                                      
D0000001190099800037000SA2000000006000783330008000101000000000                                      
D0000001200099800037000SA2000000007000593460006000082000000000                                      
D0000001210099800037000SA2000000099001376790014000183000000000                                      
D0000001220099800037000SA3000000006001037850010200101000000000                                      
D0000001230099800037000SA3000000007000793010007800082000000000                                      
D0000001240099800037000SA3000000099001830860018000183000000000                                      
D0000001250099800037000SA4000000006001569760015900101000000000                                      
D0000001260099800037000SA4000000007001193000012100082000000000                                      
D0000001270099800037000SA4000000099002762760028000183000000000                                      
D0000001280099800037000SA5000000006001853220018800101000000000                                      
D0000001290099800037000SA5000000007001406600014200082000000000                                      
D0000001300099800037000SA5000000099003259820033000183000000000                                      
D0000001310099800092000SA1000000006000983300010000130000000000                                      
D0000001320099800092000SA1000000099000983300010000130000000000                                      
D0000001330099800092000SA2000000006001006500010000130000000000                                      
D0000001340099800092000SA2000000099001006500010000130000000000                                      
D0000001350099800092000SA3000000006001333530013000130000000000                                      
D0000001360099800092000SA3000000099001333530013000130000000000                                      
D0000001370099800092000SA4000000006002016980020000130000000000                                      
D0000001380099800092000SA4000000099002016980020000130000000000                                      
D0000001390099800092000SA5000000006002381190024000130000000000                                      
D0000001400099800092000SA5000000099002381190024000130000000000                                      
D0000001410099800303000SA1000000028000778140008000000000004500                                      
D0000001420099800303000SA1000000099000778140008000000000004500                                      
D0000001430099800303000SA2000000028000797210008000000000004500                                      
D0000001440099800303000SA2000000099000797210008000000000004500                                      
D0000001450099800303000SA3000000028001092270011000000000004500                                      
D0000001460099800303000SA3000000099001092270011000000000004500                                      
D0000001470099800303000SA4000000028001703810017000000000004500                                      
D0000001480099800303000SA4000000099001703810017000000000004500                                      
D0000001490099800303000SA5000000028001971240020000000000004500                                      
D0000001500099800303000SA5000000099001971240020000000000004500                                      
D0000001510099800308000SA1000000028000935430009000000000005400                                      
D0000001520099800308000SA1000000099000935430009000000000005400                                      
D0000001530099800308000SA2000000028000958360010000000000005400                                      
D0000001540099800308000SA2000000099000958360010000000000005400                                      
D0000001550099800308000SA3000000028001313050013000000000005400                                      
D0000001560099800308000SA3000000099001313050013000000000005400                                      
D0000001570099800308000SA4000000028002048210020000000000005400                                      
D0000001580099800308000SA4000000099002048210020000000000005400                                      
D0000001590099800308000SA5000000028002369700024000000000005400                                      
D0000001600099800308000SA5000000099002369700024000000000005400                                      
D0000001610099800716000SA1000000006001600670016000260000000000                                      
D0000001620099800716000SA1000000099001600670016000260000000000                                      
D0000001630099800716000SA2000000006001634510016000260000000000                                      
D0000001640099800716000SA2000000099001634510016000260000000000                                      
D0000001650099800716000SA3000000006002215210022000260000000000                                      
D0000001660099800716000SA3000000099002215210022000260000000000                                      
D0000001670099800716000SA4000000006003212180032000260000000000                                      
D0000001680099800716000SA4000000099003212180032000260000000000                                      
D0000001690099800716000SA5000000006003743460037000260000000000                                      
D0000001700099800716000SA5000000099003743460037000260000000000                                      
D0000001710099800718000SA1000000006001200000012000210000000000                                      
D0000001720099800718000SA1000000099001200000012000210000000000                                      
D0000001730099800718000SA2000000006001200000012000210000000000                                      
D0000001740099800718000SA2000000099001200000012000210000000000                                      
D0000001750099800718000SA3000000006001700000017000210000000000                                      
D0000001760099800718000SA3000000099001700000017000210000000000                                      
D0000001770099800718000SA4000000006002400000024000210000000000                                      
D0000001780099800718000SA4000000099002400000024000210000000000                                      
D0000001790099800718000SA5000000006002800000028000210000000000                                      
D0000001800099800718000SA5000000099002800000028000210000000000                                      
D0000001810099800802000SA1000000005001736370017000000000016600                                      
D0000001820099800802000SA1000000099001736370017000000000016600                                      
D0000001830099800802000SA2000000005001777460018000000000016600                                      
D0000001840099800802000SA2000000099001777460018000000000016600                                      
D0000001850099800802000SA3000000005002269890023000000000016600                                      
D0000001860099800802000SA3000000099002269890023000000000016600                                      
D0000001870099800802000SA4000000005003511400035000000000016600                                      
D0000001880099800802000SA4000000099003511400035000000000016600                                      
D0000001890099800802000SA5000000005004174260042000000000016600                                      
D0000001900099800802000SA5000000099004174260042000000000016600                                      
D0000001910099800818000SA1000000005001294800013000000000012400                                      
D0000001920099800818000SA1000000099001294800013000000000012400                                      
D0000001930099800818000SA2000000005001325430013000000000012400                                      
D0000001940099800818000SA2000000099001325430013000000000012400                                      
D0000001950099800818000SA3000000005001692640017000000000012400                                      
D0000001960099800818000SA3000000099001692640017000000000012400                                      
D0000001970099800818000SA4000000005002618420026000000000012400                                      
D0000001980099800818000SA4000000099002618420026000000000012400                                      
D0000001990099800818000SA5000000005003112700031000000000012400                                      
D0000002000099800818000SA5000000099003112700031000000000012400                                      
D0000002010099800819000SA1000000005001049780010000000000010000                                      
D0000002020099800819000SA1000000099001049780010000000000010000                                      
D0000002030099800819000SA2000000005001074620011000000000010000                                      
D0000002040099800819000SA2000000099001074620011000000000010000                                      
D0000002050099800819000SA3000000005001372330014000000000010000                                      
D0000002060099800819000SA3000000099001372330014000000000010000                                      
D0000002070099800819000SA4000000005002122930021000000000010000                                      
D0000002080099800819000SA4000000099002122930021000000000010000                                      
D0000002090099800819000SA5000000005002523680025000000000010000                                      
D0000002100099800819000SA5000000099002523680025000000000010000                                      
T000000212
