HPUNTI PEDAGGI       2024-01-0500:00:00035000762024-01-0408.33.05                                  
D00000000100000CU AUTOR.      CU AUTORIZZATA                      PF     1901-01-012035-12-31      
D00000000200035FIANO ROMANO   FIANO ROMANO                  006005SA     1989-12-132035-12-31      
D00000000300037MELEGNANO      MELEGNANO                     006002SA     1992-07-162035-12-31      
D00000000400092CAST. DI PORTO CASTELNUOVO DI PORTO          006005SA     2010-07-272035-12-31      
D00000000500303ROSIGNANO      ROSIGNANO                     028001BA     2012-06-072035-12-31      
D00000000600308TARQUINIA      TARQUINIA                     028001BA     2016-04-012035-12-31      
D00000000700716CASERTA SUD    CASERTA SUD                   006006SA     1989-12-132035-12-31      
D00000000800718POMIGLIANO     POMIGLIANO                    006006SA     1989-12-132035-12-31      
D00000000900802LUNGHEZZA      LUNGHEZZA                     005001SA     2024-01-012035-12-31      
D00000001000818PONTE DI NONA  PONTE DI NONA                 005001SA     2024-01-012035-12-31      
D00000001100819SETTECAMINI    SETTECAMINI                   005001SA     2024-01-012035-12-31      
D00000001200997DIREZ.ENTRATA  DIREZIONE ENTRATA                   PF     1901-01-012035-12-31      
D00000001300998DIREZ. USCITA  DIREZIONE USCITA                    PF     1901-01-012035-12-31      
T000000015
