HPUNTI PEDAGGI       2023-12-0600:00:00037000212023-12-0410.23.04                                  ^@
D00000000100000CU AUTOR.      CU AUTORIZZATA                      PF     1901-01-012035-12-31      ^@
D00000000200427SV.AOSTA OVEST SVINCOLO LIBERO AOSTA OVEST   029001SL     2000-12-192035-12-31      ^@
D00000000300428SV. DI MORGEX  SVINCOLO DI MORGEX            029001SL     1994-03-152035-12-31      ^@
D00000000400470COURMAYEUR SUD COURMAYEUR SUD                029001SL     2001-06-272035-12-31      ^@
D00000000500997DIREZ. ENTRATA DIREZIONE ENTRATA                   PF     1901-01-012035-12-31      ^@
D00000000600998DIREZ. USCITA  DIREZIONE USCITA                    PF     1901-01-012035-12-31      ^@
T000000008