HPUNTI PEDAGGI       2024-01-0100:00:00001001612023-12-0410.23.04
D00000000100000CU AUTORIZZATA CONVERS. AD U AUTORIZZATA           PF     1901-01-012035-12-31
D00000000200001MILANO SUD     MILANO SUD                    006002BC007421901-01-012035-12-31
D00000000300002LODI           LODI                          006002SC007422007-07-222035-12-31
D00000000400003CASALPUSTERL.  CASALPUST.OSPEDALETTO LODIG.  006002SC007422007-07-222035-12-31
D00000000500004BASSO LODIGIANOBASSO LODIGIANO               006002SC007421901-01-012035-12-31
D00000000600005PIACENZA SUD   PIACENZA SUD                  006002SC007422007-08-082035-12-31
D00000000700006FIORENZUOLA    FIORENZUOLA                   006002SC007421901-01-012035-12-31
D00000000800007FIDENZA-SALSOM.FIDENZA-SALSOMAGGIORE T.      006002SC007421901-01-012035-12-31
D00000000900008PARMA          PARMA                         006002SC007421901-01-012035-12-31