HPUNTI PEDAGGI       2024-01-0100:00:00034000322023-12-3017.48.23                                  
D00000000100000CU AUTORIZZATA CONVERS. AD U AUTORIZZATA           PF     1901-01-012035-12-31      
D00000000200188GOVONE         BARRIERA GOVONE               043001BA     2008-08-072035-12-31      
D00000000300189SV. DI CHERASCOSVINCOLO DI CHERASCO          043001SA     2007-06-192035-12-31      
D00000000400446VILLANOVA SV.  VILLANOVA SVINCOLO            015001SA     1990-04-202035-12-31      
D00000000500469AOSTA EST      AOSTA EST                     017001SA     2003-04-042035-12-31      
D00000000600699SCHIO-VALDAGNO SCHIO VALDAGNO                040001BA     1999-07-122035-12-31      
D00000000700997DIREZ. ENTRATA DIREZIONE ENTRATA                   PF     1901-01-012035-12-31      
D00000000800998DIREZ. USCITA  DIREZIONE USCITA                    PF     1901-01-012035-12-31      
T000000010
